{
  "_format": "hh-sol-artifact-1",
  "contractName": "chai",
  "sourceName": "contracts/chai.sol",
  "abi": [
    {
      "inputs": [],
      "stateMutability": "nonpayable",
      "type": "constructor"
    },
    {
      "inputs": [
        {
          "internalType": "string",
          "name": "_name",
          "type": "string"
        },
        {
          "internalType": "string",
          "name": "_message",
          "type": "string"
        }
      ],
      "name": "BuyChai",
      "outputs": [],
      "stateMutability": "payable",
      "type": "function"
    },
    {
      "inputs": [],
      "name": "getDetails",
      "outputs": [
        {
          "components": [
            {
              "internalType": "string",
              "name": "name",
              "type": "string"
            },
            {
              "internalType": "string",
              "name": "message",
              "type": "string"
            },
            {
              "internalType": "uint256",
              "name": "timestamp",
              "type": "uint256"
            },
            {
              "internalType": "address",
              "name": "from",
              "type": "address"
            }
          ],
          "internalType": "struct chai.Detail[]",
          "name": "",
          "type": "tuple[]"
        }
      ],
      "stateMutability": "view",
      "type": "function"
    }
  ],
  "bytecode": "0x608060405234801561001057600080fd5b5033600160006101000a81548173ffffffffffffffffffffffffffffffffffffffff021916908373ffffffffffffffffffffffffffffffffffffffff160217905550610b79806100616000396000f3fe6080604052600436106100295760003560e01c806331f1e09d1461002e578063fbbf93a01461004a575b600080fd5b61004860048036038101906100439190610549565b610075565b005b34801561005657600080fd5b5061005f61020c565b60405161006c91906107c6565b60405180910390f35b66038d7ea4c6800034146100be576040517f08c379a00000000000000000000000000000000000000000000000000000000081526004016100b590610845565b60405180910390fd5b600160009054906101000a900473ffffffffffffffffffffffffffffffffffffffff1673ffffffffffffffffffffffffffffffffffffffff166108fc349081150290604051600060405180830381858888f19350505050158015610126573d6000803e3d6000fd5b50600060405180608001604052808481526020018381526020014281526020013373ffffffffffffffffffffffffffffffffffffffff168152509080600181540180825580915050600190039060005260206000209060040201600090919091909150600082015181600001908161019e9190610a71565b5060208201518160010190816101b49190610a71565b506040820151816002015560608201518160030160006101000a81548173ffffffffffffffffffffffffffffffffffffffff021916908373ffffffffffffffffffffffffffffffffffffffff16021790555050505050565b60606000805480602002602001604051908101604052809291908181526020016000905b828210156103e6578382906000526020600020906004020160405180608001604052908160008201805461026390610894565b80601f016020809104026020016040519081016040528092919081815260200182805461028f90610894565b80156102dc5780601f106102b1576101008083540402835291602001916102dc565b820191906000526020600020905b8154815290600101906020018083116102bf57829003601f168201915b505050505081526020016001820180546102f590610894565b80601f016020809104026020016040519081016040528092919081815260200182805461032190610894565b801561036e5780601f106103435761010080835404028352916020019161036e565b820191906000526020600020905b81548152906001019060200180831161035157829003601f168201915b50505050508152602001600282015481526020016003820160009054906101000a900473ffffffffffffffffffffffffffffffffffffffff1673ffffffffffffffffffffffffffffffffffffffff1673ffffffffffffffffffffffffffffffffffffffff168152505081526020019060010190610230565b50505050905090565b6000604051905090565b600080fd5b600080fd5b600080fd5b600080fd5b6000601f19601f8301169050919050565b7f4e487b7100000000000000000000000000000000000000000000000000000000600052604160045260246000fd5b6104568261040d565b810181811067ffffffffffffffff821117156104755761047461041e565b5b80604052505050565b60006104886103ef565b9050610494828261044d565b919050565b600067ffffffffffffffff8211156104b4576104b361041e565b5b6104bd8261040d565b9050602081019050919050565b82818337600083830152505050565b60006104ec6104e784610499565b61047e565b90508281526020810184848401111561050857610507610408565b5b6105138482856104ca565b509392505050565b600082601f8301126105305761052f610403565b5b81356105408482602086016104d9565b91505092915050565b600080604083850312156105605761055f6103f9565b5b600083013567ffffffffffffffff81111561057e5761057d6103fe565b5b61058a8582860161051b565b925050602083013567ffffffffffffffff8111156105ab576105aa6103fe565b5b6105b78582860161051b565b9150509250929050565b600081519050919050565b600082825260208201905092915050565b6000819050602082019050919050565b600081519050919050565b600082825260208201905092915050565b60005b8381101561062757808201518184015260208101905061060c565b60008484015250505050565b600061063e826105ed565b61064881856105f8565b9350610658818560208601610609565b6106618161040d565b840191505092915050565b6000819050919050565b61067f8161066c565b82525050565b600073ffffffffffffffffffffffffffffffffffffffff82169050919050565b60006106b082610685565b9050919050565b6106c0816106a5565b82525050565b600060808301600083015184820360008601526106e38282610633565b915050602083015184820360208601526106fd8282610633565b91505060408301516107126040860182610676565b50606083015161072560608601826106b7565b508091505092915050565b600061073c83836106c6565b905092915050565b6000602082019050919050565b600061075c826105c1565b61076681856105cc565b935083602082028501610778856105dd565b8060005b858110156107b457848403895281516107958582610730565b94506107a083610744565b925060208a0199505060018101905061077c565b50829750879550505050505092915050565b600060208201905081810360008301526107e08184610751565b905092915050565b600082825260208201905092915050565b7f706c656173652073656e64207468652065786163742070726963650000000000600082015250565b600061082f601b836107e8565b915061083a826107f9565b602082019050919050565b6000602082019050818103600083015261085e81610822565b9050919050565b7f4e487b7100000000000000000000000000000000000000000000000000000000600052602260045260246000fd5b600060028204905060018216806108ac57607f821691505b6020821081036108bf576108be610865565b5b50919050565b60008190508160005260206000209050919050565b60006020601f8301049050919050565b600082821b905092915050565b6000600883026109277fffffffffffffffffffffffffffffffffffffffffffffffffffffffffffffffff826108ea565b61093186836108ea565b95508019841693508086168417925050509392505050565b6000819050919050565b600061096e6109696109648461066c565b610949565b61066c565b9050919050565b6000819050919050565b61098883610953565b61099c61099482610975565b8484546108f7565b825550505050565b600090565b6109b16109a4565b6109bc81848461097f565b505050565b5b818110156109e0576109d56000826109a9565b6001810190506109c2565b5050565b601f821115610a25576109f6816108c5565b6109ff846108da565b81016020851015610a0e578190505b610a22610a1a856108da565b8301826109c1565b50505b505050565b600082821c905092915050565b6000610a4860001984600802610a2a565b1980831691505092915050565b6000610a618383610a37565b9150826002028217905092915050565b610a7a826105ed565b67ffffffffffffffff811115610a9357610a9261041e565b5b610a9d8254610894565b610aa88282856109e4565b600060209050601f831160018114610adb5760008415610ac9578287015190505b610ad38582610a55565b865550610b3b565b601f198416610ae9866108c5565b60005b82811015610b1157848901518255600182019150602085019450602081019050610aec565b86831015610b2e5784890151610b2a601f891682610a37565b8355505b6001600288020188555050505b50505050505056fea2646970667358221220012bdf63016f024e176a27f3034c2d4a1d78878c20548060bd758074b0683fbc64736f6c63430008110033",
  "linkReferences": {},
  "deployedLinkReferences": {}
}